:100000000C942A000C9447000C9447000C94470071
:100010000C9447000C9447000C9447000C94470044
:100020000C9447000C9447000C9447000C94470034
:100030000C9447000C9447000C9447000C94470024
:100040000C9447000C9447000C9447000C94470014
:100050000C94470011241FBECFE5D4E0DEBFCDBF16
:1000600010E0A0E6B0E0E8E0FBE002C005900D92F1
:10007000AC38B107D9F720E0ACE8B0E001C01D9280
:10008000A039B207E1F70E94CF000C9482050C94CE
:100090000000CF92DF92EF92FF92CF93DF93EC01BB
:1000A0000E94D604BC01990F880B990B0E943C0258
:1000B00020E030E040E058E30E94A0026B017C01A8
:1000C000BE0180E090E00E943A029B01AC01C701B2
:1000D000B6010E94A0020E940B02CB01DF91CF91DA
:1000E000FF90EF90DF90CF900895982F937095BB7D
:1000F0008C7F88BB089510BC83E389B91BB888E066
:100100008AB986E880BD08955D9BFECF8CB90895BD
:10011000CF93DF93EC018881882331F021960E94F0
:10012000840089918111FBCFDF91CF910895CF9306
:10013000C82F843648F089E2C89F812D112482950A
:100140008F70805D0E948400CA30B0F089E2C89F41
:10015000812D112482958F709C2F24E6829F901907
:100160001124892F9DEC899F812D112486958695D8
:100170008695805D0E9484009DECC99F912D11247D
:10018000969596959695990F892F880F880F980FB9
:100190008C2F891B805D0E948400CF910895CF939E
:1001A000DF93CDB7DEB72A970FB6F894DEBF0FBE48
:1001B000CDBF8FED89838FEB8A838FE78B8384E0BC
:1001C0008C8388E08D8380E18E8381E090E00E94C3
:1001D000F7044C018FEF84BB87BB93EE91BB82BBCE
:1001E0000E947B0081E090E00E945D033C0121E0E1
:1001F00029871A8622242394312C512CC101252CC5
:1002000024014C0109C0422D50E0B801C3010E94F5
:10021000E604C8010E94F20380E090E00E94EF042F
:10022000182FC2010E94DB0488EE93E00E9449006F
:100230006FEF70E00E943503612F6827677080E0E0
:1002400090E00E94FD0480E090E00E94EF04EBEA61
:100250008E9F912D11249695292F30E0492F440F20
:10026000940F891BF901EE0FFF1FE20FF31FE80F38
:10027000F11DE659FF4F8081F301E20DF11D8083EE
:10028000181419040CF07EC010E0F301E10FF11D09
:1002900080810E947500FFEF23EC89E0F15020403F
:1002A0008040E1F700C0000080E00E9475009FEFF1
:1002B000E3ECF9E09150E040F040E1F700C00000CD
:1002C0001F5F812F90E088159905FCF25BC0EF81DC
:1002D000F8858191F887EF8382BBCE0104966C018B
:1002E000280193E0490E511C750180B3F6019191EC
:1002F0006F01892399F580B389239813FCCFF70107
:100300008081F301E30DF11D9081891304C00E94E7
:100310007500339423C083E790E00E948800822D0B
:100320000E9497008DE00E94840082EC0E9475007C
:10033000FFEF23EC89E0F15020408040E1F700C05E
:10034000000080E00E9475009FEFE3ECF9E091501F
:10035000E040F040E1F700C00000E7CF0F5F1F4F23
:100360002FEFE21AF20A0415150509F0BECF83E05B
:10037000A80EB11C820193E7A91690E0B90609F016
:10038000A6CF01C0312C832D90E08815990564F427
:10039000FE013196F887EF830F2EFAE6AF2EF0E0DC
:1003A000BF2EF02D820193CF89859A850E945D032F
:1003B0008C0149855A85B3010E94E604C3010E945D
:1003C000F203FFEF23EC89E0F15020408040E1F799
:1003D00000C0000080E00E9475009FEFE7E8F3E1B5
:1003E0009150E040F040E1F700C00000B20181E030
:1003F00090E00E940A052394822D90E04C012FEF9B
:10040000821A920A89869A86C4010E945D033C0181
:100410002110F9CE01CF0E947F0288F09F5798F0FB
:10042000B92F9927B751B0F0E1F0660F771F881FF9
:10043000991F1AF0BA95C9F714C0B13091F00E9413
:100440009902B1E008950C949902672F782F8827BC
:10045000B85F39F0B93FCCF3869577956795B3953A
:10046000D9F73EF490958095709561957F4F8F4FA9
:100470009F4F0895E89409C097FB3EF490958095AE
:10048000709561957F4F8F4F9F4F9923A9F0F92F5A
:1004900096E9BB279395F695879577956795B795D8
:1004A000F111F8CFFAF4BB0F11F460FF1BC06F5FBE
:1004B0007F4F8F4F9F4F16C0882311F096E911C0D0
:1004C000772321F09EE8872F762F05C0662371F0F1
:1004D00096E8862F70E060E02AF09A95660F771F05
:1004E000881FDAF7880F9695879597F9089557FD35
:1004F0009058440F551F59F05F3F71F04795880F92
:1005000097FB991F61F09F3F79F087950895121628
:1005100013061406551FF2CF4695F1DF08C01616D4
:1005200017061806991FF1CF869571056105089485
:100530000895E894BB2766277727CB0197F908959C
:100540000E94B3020C9424030E94160338F00E9408
:100550001D0320F0952311F00C940D030C9413034C
:1005600011240C949A020E94770270F3959FC1F3B4
:10057000950F50E0551F629FF001729FBB27F00D51
:10058000B11D639FAA27F00DB11DAA1F649F6627A6
:10059000B00DA11D661F829F2227B00DA11D621FF5
:1005A000739FB00DA11D621F839FA00D611D221FAF
:1005B000749F3327A00D611D231F849F600D211D93
:1005C000822F762F6A2F11249F5750409AF0F1F016
:1005D00088234AF0EE0FFF1FBB1F661F771F881F7F
:1005E00091505040A9F79E3F510580F00C940D03A7
:1005F0000C949A025F3FE4F3983ED4F38695779586
:100600006795B795F795E7959F5FC1F7FE2B880F24
:10061000911D9695879597F9089597F99F6780E8BA
:1006200070E060E008959FEF80EC089500240A9444
:100630001616170618060906089500240A941216BD
:100640001306140605060895092E0394000C11F4F0
:10065000882352F0BB0F40F4BF2B11F460FF04C09D
:100660006F5F7F4F8F4F9F4F089597FB072E16F4B4
:10067000009407D077FD09D00E94490307FC05D0FC
:100680003EF4909581959F4F0895709561957F4FA9
:100690000895AA1BBB1B51E107C0AA1FBB1FA617C9
:1006A000B70710F0A61BB70B881F991F5A95A9F71B
:1006B00080959095BC01CD010895CF93DF93823052
:1006C000910510F482E090E0E0918E00F0918F00AF
:1006D00020E030E0C0E0D0E0309711F1408151815E
:1006E00048175907C0F04817590761F48281938170
:1006F000209719F09B838A832BC090938F0080935F
:100700008E0026C02115310519F04217530718F441
:100710009A01BE01DF01EF010280F381E02DDCCF01
:100720002115310509F1281B390B2430310590F4CE
:1007300012968D919C9113976115710521F0FB0123
:100740009383828304C090938F0080938E00FD0179
:10075000329644C0FD01E20FF31F81939193225022
:1007600031092D933C933AC020918C0030918D003B
:10077000232B41F4209162003091630030938D006F
:1007800020938C002091600030916100211531058B
:1007900041F42DB73EB74091640050916500241B91
:1007A000350BE0918C00F0918D00E217F307A0F477
:1007B0002E1B3F0B2817390778F0AC014E5F5F4FB7
:1007C0002417350748F04E0F5F1F50938D0040935C
:1007D0008C008193919302C0E0E0F0E0CF01DF91C3
:1007E000CF9108950F931F93CF93DF93009709F450
:1007F0008CC0FC0132971382128200918E001091FE
:100800008F000115110581F420813181820F931F22
:1008100020918C0030918D002817390779F5F093DD
:100820008D00E0938C0071C0D80140E050E0AE171D
:10083000BF0750F412962D913C911397AD012115ED
:10084000310509F1D901F3CF9D01DA013383228308
:1008500060817181860F971F8217930769F4EC01FD
:1008600028813981260F371F2E5F3F4F3183208328
:100870008A819B8193838283452B29F4F0938F0097
:10088000E0938E0042C01396FC93EE931297ED0115
:10089000499159919E01240F351FE217F30771F416
:1008A00080819181840F951F029611969C938E935F
:1008B0008281938113969C938E931297E0E0F0E0EF
:1008C000D80112968D919C911397009719F0F80119
:1008D0008C01F6CF8D919C9198012E5F3F4F820F36
:1008E000931F20918C0030918D002817390769F4EF
:1008F000309729F410928F0010928E0002C013825C
:10090000128210938D0000938C00DF91CF911F9184
:100910000F9108958F929F92AF92BF92CF92DF92E4
:10092000EF92FF92CF93DF93EC01688179818A8106
:100930009B81611571058105910521F464E279EDD2
:100940008BE597E02DE133EF41E050E00E941F0579
:1009500049015A019B01AC01A7EAB1E40E943E059E
:100960006B017C01ACEEB4EFA50194010E944C0533
:10097000DC01CB018C0D9D1DAE1DBF1DB7FF03C05B
:100980000197A109B04888839983AA83BB839F7785
:10099000DF91CF91FF90EF90DF90CF90BF90AF901D
:1009A0009F908F9008950E948A04089586E690E0B3
:1009B0000E948A040895A0E0B0E0809366009093BE
:1009C0006700A0936800B09369000895FB01DC0103
:1009D00002C001900D9241505040D8F70895E1991E
:1009E000FECF9FBB8EBBE09A99278DB30895A8E1F7
:1009F000B0E042E050E00C941105262FE199FECFC3
:100A00009FBB8EBB2DBB0FB6F894E29AE19A0FBE46
:100A1000019608950E94FD04272F0C94FE04DC012A
:100A2000CB01FC01E199FECF06C0FFBBEEBBE09A13
:100A300031960DB20D9241505040B8F70895052EF1
:100A400097FB1EF400940E94360557FD07D00E94C4
:100A5000510507FC03D04EF40C9436055095409593
:100A6000309521953F4F4F4F5F4F0895909580955A
:100A7000709561957F4F8F4F9F4F08950E9473052A
:100A8000A59F900DB49F900DA49F800D911D1124E2
:100A90000895B7FF0C943E050E943E05821B930B00
:100AA0000895A1E21A2EAA1BBB1BFD010DC0AA1FAF
:100AB000BB1FEE1FFF1FA217B307E407F50720F0C7
:100AC000A21BB30BE40BF50B661F771F881F991F42
:100AD0001A9469F760957095809590959B01AC018B
:100AE000BD01CF010895A29FB001B39FC001A39F94
:100AF000700D811D1124911DB29F700D811D112457
:080B0000911D0895F894FFCF48
:100B080000009000200001000000F999F8A49280EC
:100B1800B0829047616D65206F7665722120596FAC
:0C0B280075722073636F72653A20000044
:00000001FF
